:020000040800F2
:10000000580800202902000867240008E921000898
:1000100065240008690600086B290008000000003C
:10002000000000000000000000000000AB250008F8
:100030006B06000800000000A9250008AD25000897
:10004000430200084302000843020008430200087C
:10005000430200084302000843020008430200086C
:10006000430200084302000843020008430200085C
:10007000430200084302000843020008430200084C
:1000800043020008430200082D050008430200084F
:10009000430200084302000843020008430200082C
:1000A00043020008552600084302000843020008E6
:1000B000430200084302000843020008430200080C
:1000C00043020008430200084302000843020008FC
:1000D00043020008430200084302000843020008EC
:1000E00043020008430200084302000843020008DC
:1000F00043020008430200084302000843020008CC
:1001000043020008430200084302000843020008BB
:1001100043020008430200084302000843020008AB
:10012000430200084302000843020008430200089B
:10013000430200084302000843020008430200088B
:10014000430200084302000843020008430200087B
:10015000430200084302000843020008430200086B
:10016000430200084302000843020008430200085B
:100170004302000843020008430200080000000098
:10018000430200084302000800F002F800F03CF8C7
:100190000AA090E8000C82448344AAF10107DA45E2
:1001A00001D100F031F8AFF2090EBAE80F0013F0F8
:1001B000010F18BFFB1A43F0010318479C300000E1
:1001C000BC300000103A24BF78C878C1FAD8520772
:1001D00024BF30C830C144BF04680C6070470000C1
:1001E0000023002400250026103A28BF78C1FBD840
:1001F000520728BF30C148BF0B6070471FB502F0DF
:100200001BFC1FBD10B510BD00F055F91146FFF7DE
:10021000F5FF02F0BBFB00F073F903B4FFF7F2FF48
:1002200003BC00F07BF900000948804709480047FB
:10023000FEE7FEE7FEE7FEE7FEE7FEE7FEE7FEE796
:10024000FEE7FEE704480549054A064B70470000F3
:10025000452600088901000858020020580800209F
:1002600058040020580400209FED1A1AF5EE000AE9
:1002700040EE010ABDEEE00AF5EEC00A10EE100AEB
:10028000F1EE10FA38BF401E00EE100A1349F7EEE7
:10029000001AB8EEC00A30EEC00ADFED0F0A20EEF9
:1002A000200AFCEEC00A10EE900AC0F3080000EE2F
:1002B000900A01EB8000F8EE600A90ED011A70EEF2
:1002C000600A90ED000A71EEE01A21EE800A00EE5D
:1002D000810A704783F9223E00000044542A000836
:1002E000B5EEC00AF1EE10FA07D2DFED1E0AB4EE49
:1002F000E00AF1EE10FAA8BF7047DFED1B0AB5EE79
:10030000C00A60EE200ABDEEE01A11EE100AF1EE0E
:1003100010FA38BF401E00EE100A1549F7EE001A19
:10032000B8EEC00A30EEC00ADFED100A60EE200A17
:10033000BCEEE00A10EE100AC0F3080000EE100A4E
:1003400001EB8000B8EE400A90ED011A70EEC00A91
:1003500090ED000A71EEE01A21EE800A00EE810AAB
:1003600070470000CD024CB483F9223E00000044E7
:10037000542A000853EA020C00F069802DE9F04B82
:100380004FF00006002B1FBFB3FA83F503FA05F404
:1003900024FA05F65E4012BF1643B2FA82F502FA5D
:1003A00005F4C5F120051EBF22FA05FC44EA0C0441
:1003B000203556EA044C4FEA144418BF641C4FF031
:1003C00000084FF00009904271EB030C39D300296B
:1003D00019BFB1FA81F701FA07F6B0FA80F700FA0F
:1003E00007F6C7F120071EBF20FA07FC46EA0C06F5
:1003F0002037B6FBF4FCA7EB0507103F07F01F0BF7
:10040000CBF120060CFA0BFB2CFA06F644BFB346E0
:100410000026202FA4BF5E464FF0000B5BEA060CBF
:1004200008BF4FF0010B19EB0B09ABFB027C48EB4B
:100430000608C01B06FB02CC0BFB03CC71EB0C01C6
:10044000C1E70B46024641464846BDE8F08B13B56E
:100450004FF000004FF00001AFF30080BDE81C40FA
:1004600070474FF0000200B5134694469646203977
:1004700022BFA0E80C50A0E80C50B1F12001BFF45D
:10048000F7AF090728BFA0E80C5048BF0CC05DF8C3
:1004900004EB890028BF40F8042B08BF704748BF11
:1004A00020F8022B11F0804F18BF00F8012B704785
:1004B000704770477047754600F02CF8AE4605004F
:1004C0006946534620F00700854618B020B5FFF76F
:1004D000B9FEBDE820404FF000064FF000074FF096
:1004E00000084FF0000B21F00701AC46ACE8C00952
:1004F000ACE8C009ACE8C009ACE8C0098D4670475B
:1005000010B50446AFF300802046BDE81040FFF769
:1005100084BE000000487047F801002001491820FF
:10052000ABBEFEE72600020070470000014800F065
:100530006FBC0000540100204A494A6822F440324E
:100540004A604A6843681A434A6001684A6822F46C
:1005500080724A6001684A68036942EA03224A607D
:1005600001684A6822F040724A6001684A688368FC
:100570001A434A6001688A6822F400628A6001684E
:100580008A68C3681A438A60816A6FF07062D142D8
:1005900014D001688A6822F070628A6001688A68F3
:1005A000836A1A438A6001688A6822F040528A602E
:1005B00001688A68C36A1A438A6009E001688A6828
:1005C00022F070628A6001688A6822F040528A6074
:1005D00001688A6822F002028A6001688A68037EE4
:1005E00042EA43028A6090F8201089B101684A68A3
:1005F00042F400624A6001684A6822F460424A603C
:1006000001684B68426A521E43EA42324A6004E083
:1006100001684A6822F400624A600168CA6A22F4EA
:100620007002CA620168CB6A828B521E43EA025290
:10063000CA6201688A6822F400728A6001688A6866
:1006400090F8303042EA43228A6001688A6822F4D6
:1006500080628A6001688A68406942EA8020886016
:100660007047000000230140FEE7704772B6FEE7C6
:1006700070B5714C8A6990F83C20012A19D001228A
:1006800080F83C200A680725092A14D90368DE6827
:100690000A3A02EB42029540AE43DE600A788B686C
:1006A0000A3A02EB420293400268D5682B43D360BA
:1006B00011E0022070BD03681E6902EB4202954002
:1006C000AE431E610A788B6802EB420293400268D7
:1006D00015692B4313610268936B23F440139363F2
:1006E0000268956B0B8A5B1E45EA035393630A7994
:1006F0000B7CD21AD21C02EB82021F2393400268A9
:10070000956B9D4395630A790B7CD21A0B88D21C9A
:1007100002EB82029BB293400268956B2B4393637A
:100720008A69A24214D00268936823F4702393600C
:10073000026893688C69234393600268936823F48A
:100740004013936002689368CC692343936009E087
:100750000268936823F4702393600268936823F41B
:10076000401393604A7D2AB10268536843F4806362
:10077000536004E00268536823F4806353600A7D89
:100780002AB10268536843F48053536004E002685E
:10079000536823F4805353604A68012A16D0022A12
:1007A0001FD0032A28D00268136A6FF30B03136269
:1007B0000268136ACC6823431362204A204B046802
:1007C0009C4228D10C68122C21D024E00268536985
:1007D0006FF30B03536102685369CC682343536181
:1007E000EBE7026893696FF30B0393610268936907
:1007F000CC6823439361E0E70268D3696FF30B038E
:10080000D3610268D369CC682343D361D5E75468C8
:1008100044F48004546004689C4208D1096810299B
:1008200001D0112903D1516841F400015160002128
:1008300080F83C10002070BD01000F000023014033
:10084000002001402DE9F0412DED048B0068C949DD
:1008500088427DD1C84C9FEDC91A2246206992ED8D
:10086000010AD2ED020A002873D0012870D1C86BAA
:10087000F0EE008A01EE900AF8EE611A11EE810A9C
:1008800020EE280A84ED0A0A086C00EE100AB8EE81
:10089000400A50EE010AB8EE000A20EE800A84ED0C
:1008A0000B0AC86B6080CB6B00221146B44800F085
:1008B00013FC94ED0A0AD4ED0C0A94ED0E1AD4ED53
:1008C000051A30EE600AB0EE412A10EE212A94EDAE
:1008D000060A22EE002ADFEDAB2A22EE222A84ED60
:1008E0000D2A9FEDA98A42EE080AC4ED0C0A60EEBB
:1008F000800A60EEA20A00EE881A84ED0E1AD4ED8A
:100900000B0A94ED0F1A30EEC13AD4ED110AB0EE95
:10091000602A13EE212A62EE001A61EEA21AC4EDDB
:10092000101A01EE881A84ED0F1A21EE000A20EE4B
:10093000220A40EE080AC4ED110AC4ED070A94ED3C
:10094000130A20EE280A9FED919A20EE090A01E091
:100950005BE038E0FFF7C4FC84ED150A94ED130A60
:1009600020EE280A20EE090AFFF77EFC84ED160A25
:10097000D4ED0C0A94ED151A854D60EE810A94EDC4
:100980000E1A41EE400AC5ED010A284601F0C4FDE9
:1009900095ED020A84ED120ADFED7E0A60EE200A70
:1009A00094ED130A00EE880A84ED130A10EE100A83
:1009B0004FF07E51F7EE000A88422ADD30EE600AE1
:1009C00084ED130A2EE0E068401CE060CA6B01EE83
:1009D000902AF8EE611A21EE812ADFED6F1A02EEFD
:1009E000210A84ED010A096C00EE101AB8EE400AE3
:1009F00020EE010A40EE210AC4ED020AB0F5C87FDC
:100A000003D1012020610020E060BDEC048BBDE833
:100A1000F081B5EEC00AF1EE10FA03D230EE200AF2
:100A200084ED130A94ED130A10EE100A84ED140AF3
:100A3000884204DD30EE600A84ED140A08E0B5EE69
:100A4000C00AF1EE10FA03D230EE200A84ED140A47
:100A500094ED150AD4ED090A60EE200AC4ED170AD8
:100A60004E48D4ED0A0AC0ED000AD4ED0E0AC0EDDE
:100A7000010A80ED050A94ED160A80ED060A01F0E0
:100A8000F3FC474E94ED0B0A86ED000A94ED070A3D
:100A900086ED010A94ED150A86ED050A94ED160A15
:100AA00086ED060A304601F0DFFC20783D4D012836
:100AB00045D00228A9D13C4F96ED030A87ED010AE3
:100AC000384601F029FDDFF8E48096ED040A88ED50
:100AD000010A404601F020FD354E97ED020A86EDF1
:100AE000030A98ED020A86ED040A94ED150A86EDD4
:100AF000050A94ED160A86ED060A304601F075FBEC
:100B000096ED000A84ED080ADFED2A0A9FED2A2AF5
:100B1000B6EE001A20EE200AF0EE420A40EE410A3C
:100B2000FCEEE01A11EE900AA863F0EE420A40EEE5
:100B3000010ABCEEE00A10EE100AE86365E7286AD5
:100B400040F001002862286A40F004002862286A08
:100B500040F010002862286A40F040002862286AAD
:100B600040F480702862286A40F480602862022085
:100B700020704AE70020014000000020D5FF7F39A7
:100B80009C01002063149D4317B7D138DB0F494007
:100B900070000020000048420AD7233B00010020DB
:100BA0001C01002000000140A0000020D000002017
:100BB00038010020003C0346003C834518B5002264
:100BC000009290F83C10012907D0012180F83C10D8
:100BD00001688B68DB0702D014E0022018BD8B6827
:100BE00043F001038B602F492F4B0968B1FBF3F1F0
:100BF00001EB4101009102E00099491E009100992A
:100C00000029F9D101688B68DB0741D0036C42F2FF
:100C10000104A34343F480530364036CDB0500D455
:100C2000426480F83C206FF004020A6001684A6860
:100C300042F080024A601D494968C90613D0006825
:100C4000816811F4401F21D00021426842F38022C4
:100C5000521C174B984223D111B30AB3816841F457
:100C6000800181601CE00068816811F4401F0BD096
:100C70000021426842F38022521C89B182B181680E
:100C800041F4800181600BE00121F2E70121DCE702
:100C9000016C41F010010164416C41F001014164BB
:100CA000002018BD6C00002040420F0000230140CE
:100CB0000020014078B50024009490F83C20012ADF
:100CC00019D0012280F83C200A680725092A14D986
:100CD0000368DE680A3A02EB42029540AE43DE60EA
:100CE0000A788B680A3A02EB420293400268D568A0
:100CF0002B43D36011E0022078BD03681E6902EB2C
:100D000042029540AE431E610A788B6802EB4202B4
:100D10009340026815692B4313614A681F25072A0F
:100D200013D203685E6B521E02EB82029540AE4303
:100D30005E630A8893B20A79521E02EB82029340E4
:100D40000268556B2B43536328E00D2A13D20368C6
:100D50001E6BD21F02EB82029540AE431E630A88CF
:100D600093B20A79D21F02EB820293400268156B9C
:100D70002B43136312E00368DE6A0D3A02EB820232
:100D80009540AE43DE620A8893B20A790D3A02EBCF
:100D9000820293400268D56A2B43D362174A184BEC
:100DA00005689D4206D10D68122D03D1556845F4A2
:100DB0008005556005689D421BD10B68102B01D042
:100DC000112B16D1536843F40003536009681029AE
:100DD0000FD10C490C4A0968B1FBF2F101EB81011A
:100DE0004900009102E00099491E009100990029F4
:100DF000F9D180F83C40002078BD0000002301407C
:100E0000002001406C00002040420F0070477047F6
:100E100070B5044620680568466805F0020106F0D2
:100E2000200200292AD04AB3216CC90603D4216CC0
:100E300041F400712164816811F0405F17D1217E77
:100E4000A9B9C16A11F4700F02D0816849050ED4A6
:100E5000416821F020014160206C20F48070206402
:100E6000206CC00403D4206C40F0010020642046B4
:100E7000FFF7CCFF21686FF01200086005F0040056
:100E800006F0800190B389B3206CC00603D4206CB7
:100E900040F4005020642068816811F4401F1ED186
:100EA000816B11F4401F02D08168490517D4416855
:100EB000490514D4816811F0405F10D1217E71B9C9
:100EC000416821F080014160206C20F48050206452
:100ED000206CC00503D4206C40F001002064204643
:100EE000FFF7B0FC21686FF00C00086005F001000E
:100EF00006F0400178B171B120680068C0070AD0DF
:100F0000206C40F480302064204600F044F82168D2
:100F10006FF00100086005F0200006F080610028F5
:100F20000ED000290CD0606C40F002006064206894
:100F30006FF0200505602046FFF769FF2068056017
:100F400070BD70B504460026002C03D0206C00252F
:100F500010B107E0012070BD204600F01DF8656467
:100F600084F83C50206CC00610D4206C20F48850CB
:100F700040F0020020642046FFF7DEFA6564206C32
:100F800020F0020040F00100206400E0012684F817
:100F90003C50304670BD704710B586B004461421F1
:100FA00001A8FFF75EFA15492068884224D1002184
:100FB0001348026842F480720260006800F4807096
:100FC00000900F481438026842F001020260006885
:100FD00000F0010000900E20019003200290039188
:100FE00001A9084800F0B8F800221146122000F0CC
:100FF0000BFA122000F0FAF906B010BD00200140F3
:10100000443802400000024070B54379012B1CD0E7
:10101000012646710223037103681D6802F0100265
:1010200040F6FE749440A543D1E900410C4394403E
:101030002C431C6001680B68C0249440A3430B60E0
:10104000067100214171002070BD022070BD70B595
:101050000446002C03D02079002510B105E00120C2
:1010600070BD6571204600F007F8022020712561EF
:1010700001202071002070BD10B586B004461421F7
:1010800001A8FFF7EEF91149206888421CD1002120
:101090000F48026842F000520260006800F0005001
:1010A00000900B481038026842F0010202600068AC
:1010B00000F0010000903020019003200290039185
:1010C00001A9044800F048F806B010BD00740040C3
:1010D000403802400000024018B5046800940068DF
:1010E0000029104405D014300090009803600020BF
:1010F00018BD08300090F8E770B54279012A1DD07C
:101100000126344646710222027103681D6801F00F
:101110001002944025431D6091B101680B6803F4EF
:1011200070143C2393409C4203D14A6842F002026F
:101130004A60067100214171002070BD022070BD1F
:1011400001680A68C2F383020F2AF2D14A6842F0AA
:1011500001024A60EDE700002DE9F84F0022DFF8B8
:101160009C914FF0010803274FF00F0C09F1040A7E
:10117000A9F1040B08FA02F50B682B40AB426ED1C3
:101180000C7904F00304012C01D0022C15D18668DF
:10119000540007FA04FE26EA0E06D1F80CE00EFA17
:1011A00004FE4EEA060EC0F808E04468AC430D7930
:1011B000C5F300159540254345600C79E443A40729
:1011C00008D0C568540007FA04F6B5438E68A640F7
:1011D0002E43C6600C7904F00304022C11D1D4080C
:1011E00000EB8406356A5407E40E0CFA04FE25EA87
:1011F0000E05D1F810E00EFA04FE4EEA050EC6F810
:1012000020E00568540007FA04F6B5430E7906F0AD
:101210000306A6402E4306604C6814F4403F67D096
:10122000374C256845F480452560246804F48044E3
:101230000094344C22F003052E19D6F80858940770
:101240004FEA147E0CFA0EF4A5432F4CA04201D1B4
:10125000002424E02D4CA04202D101241FE047E0ED
:101260002B4CA04201D1022419E02A4CA04201D10A
:10127000032414E0284CA04201D104240FE0274CA1
:10128000A04201D105240AE0254CA04201D1062448
:1012900005E0244CA04201D1072400E0082404FA10
:1012A0000EF42C43C6F80848D9F800409C434D681A
:1012B000ED0200D51C43C9F80040DAF800409C4319
:1012C0004D68AD0200D51C43CAF80040DBF8004071
:1012D0009C434D68AD0300D51C43CBF80040074D3F
:1012E000083D2C689C434E68F60300D51C432C60D7
:1012F000521C102AFFF43EAFBDE8F88F083C0140B5
:101300004438024000300140000002400004024026
:1013100000080240000C024000100240001402408D
:1013200000180240001C024001488068704700001D
:101330006000002002488168027811448160704793
:101340006000002010B50B48016841F40071016095
:10135000016841F480610160016841F480710160BD
:10136000032000F071F80F2000F006F800F026F8D6
:10137000002010BD003C024070B504460D4D4FF4F6
:101380007A712878B1FBF0F00B490968B1FBF0F0F5
:1013900000F026FB08B1012070BD102C07D20022FE
:1013A0002146501E00F030F86C60002070BD012016
:1013B00070BD0000600000206C00002008B50A48E5
:1013C000016841F480410160006800F480400090B1
:1013D0000548001F016841F080510160006800F07D
:1013E0008050009008BD000044380240002809DB0E
:1013F00000F01F02012191404009800000F1E0202F
:10140000C0F8001170470000F0B40D460D4B1B688A
:10141000C3F30223C3F10704042C00D90424191DCB
:10142000072901D2002300E0DB1E012606FA04F1A1
:10143000491E294099409E40761E16403143F0BC1B
:1014400001F094BA0CED00E000F00701054A1068C5
:101450004FF6FF03184040EA01200349084310609B
:10146000704700000CED00E00000FA052DE9F047A0
:1014700004460D46002C13D0DFF82891D9F800005F
:10148000EFB200F00700A8420CD289F80070D9F83A
:10149000000000F00700A84204D00120BDE8F0875A
:1014A0000120FBE72068404E810712D5400703D595
:1014B000306840F4E05030602078000703D5306891
:1014C00040F4604030603068A16820F0F0000843CC
:1014D00030602078C00731D033496068083901286E
:1014E00008D002280BD0032809D0096889070BD43B
:1014F0000120D3E70968890306D40120CEE70968F3
:10150000890101D40120C9E7316821F003010143B9
:101510003160FFF709FF804641F2883A07E0FFF7A4
:1015200003FFA0EB0800504501D90320B6E730685F
:10153000616800F00C00B0EB810FF0D1D9F8000029
:1015400000F00700A84209D989F80070D9F8000016
:1015500000F00700A84201D001209FE72078400753
:1015600005D53068E16820F4E05008433060207809
:10157000000706D53068216920F4604040EAC100C8
:10158000306000F019F83168084AC1F30311515C6A
:10159000C8400749086007480068FFF7EDFE0020D3
:1015A0007CE70000003C024008380240422A000864
:1015B0006C0000206400002010B51748006810F08F
:1015C0000C01164816D04310042912D0082911D155
:1015D000114C241F216801F03F02216849020AD5FD
:1015E0002068C0F38810A0FB03010023FEF7C2FEB1
:1015F00009E0184610BD21680023C1F38811A1FB42
:101600000001FEF7B7FE2168C1F30141491C490002
:10161000B0FBF1F010BD0000083802400024F400D7
:101620002DE9F84F0446002C13D02078DFF8A08372
:10163000C007A8F1040556D008F104000168C1F301
:10164000810101290CD00068C0F38100022803D079
:101650000DE00120BDE8F88FD8F80000400206D563
:10166000286880033FD5606870BB0120F2E760689E
:10167000B0F5803F10D0B0F5A02F12D0286820F42C
:1016800080302860286820F4802028606068E0B1FD
:10169000FFF74AFE064614E0286840F480302860D0
:1016A000F4E7286840F480202860286840F48030FF
:1016B0002860EBE7FFF738FE801B642801D9032080
:1016C000C8E728688003F5D50DE0FFF72DFE064634
:1016D00006E0FFF729FE801B642801D90320B9E743
:1016E00028688003F5D42078BA4F80074FF00009AE
:1016F00048D5B748001D016811F00C0F08D00068EC
:10170000C0F38100022813D1D8F8000040020FD4A2
:101710002868800704D5E068012801D0012099E7F6
:101720002868216920F0F80040EAC100286029E01B
:10173000E068B8B101203860FFF7F6FD064606E024
:10174000FFF7F2FD801B022801D9032082E72868F9
:101750008007F5D52868216920F0F80040EAC1002B
:1017600028600FE0C7F80090FFF7DEFD064606E0B0
:10177000FFF7DAFD801B022801D903206AE72868F9
:101780008007F5D42078000729D5DFF844A29248D5
:1017900061690AF1700A89B101210160FFF7C4FD96
:1017A000064606E0FFF7C0FD801B022801D9032092
:1017B00050E7DAF800008007F4D510E0C0F8009098
:1017C000FFF7B2FD064606E0FFF7AEFD801B0228DC
:1017D00001D903203EE7DAF800008007F4D420782E
:1017E000400778D54FF0000A79483C300068C000C7
:1017F0000BD477483C30016841F0805101600068AB
:1018000000F0805000904FF0010ADFF8D0B1DBF813
:101810000000C00514D4DBF8000040F48070CBF861
:101820000000FFF781FD064606E0FFF77DFD801B07
:10183000022801D903200DE7DBF80000C005F4D52C
:10184000634EA0686C3601280FD0052812D030688E
:1018500020F001003060306820F004003060A068A3
:10186000F8B1FFF761FD834617E0306840F00100F2
:101870003060F4E7306840F004003060306840F0D9
:1018800001003060EBE7FFF74FFDA0EB0B0141F2E9
:101890008830814201D90320DCE630688007F2D528
:1018A00010E0FFF741FD834609E0FFF73DFDA0EBA7
:1018B0000B0141F28830814201D90320CAE6306829
:1018C0008007F2D4BAF1010F05D141483C300168DC
:1018D00021F080510160A069C0B33D49091D09682C
:1018E0004FF0FF36C1F38101022946D0022805D00E
:1018F000C7F86090FFF718FD04463AE0C7F860901B
:10190000FFF712FD814607E0FFF70EFDA0EB09008F
:10191000022801D903209DE628688001F4D4D4E987
:1019200007010843616AA26A890106EB520241EA93
:101930000241084394F82C1040EA0160C8F8000006
:1019400001203866FFF7F0FC044607E03DE0FFF7B2
:10195000EBFC001B022801D903207BE628688001EC
:10196000F5D532E0FFF7E0FC001B022801D9032087
:1019700070E628688001F5D427E0012823D0D8F844
:101980000000E26900F4800191421AD1226A00F05D
:101990003F01914215D147F6C071626A0140B1EB37
:1019A000821F0ED1A26A00F4403106EB5202B1EB65
:1019B000024F06D194F82C1000F07060B0EB016F6C
:1019C00003D0012046E6012044E6002042E6000064
:1019D0000438024000004742800E47420070004039
:1019E00010B5401EB0F1807F01D3012010BD4FF033
:1019F000E02460610F21601700F0B8FF0020A061B3
:101A000007202061002010BD7047704710B590F886
:101A10003C20012A22D0012280F83C20CA68002301
:101A20008C6822F4407222434C6822F48062224384
:101A30000C6822F4006222430C6922F48052224393
:101A40004C6922F400522243C96922F480420A43BD
:101A500001684A6480F83C30002010BD022010BDAF
:101A600070B590F83C20012A31D0012680F83C6006
:101A7000022280F83D2002685468936824F07005C3
:101A80000C682C435460134C0268A24214D0B2F18B
:101A9000804F11D0104CA2420ED0104CA2420BD05D
:101AA0000F4CA24208D00F4CA24205D00E4CA242CD
:101AB00002D00E4CA24204D123F08003496819439E
:101AC00091603C30467000210170002070BD022002
:101AD00070BD00000000014000040040000800400C
:101AE000000C00400004014000400140001800408C
:101AF00010B50446002909D004290AD008290BD0C2
:101B000094F8450001280AD0012010BD94F8420045
:101B1000F8E794F84300F5E794F84400F2E7022070
:101B200089B3042933D0082934D084F8450004222D
:101B3000206800F008FE2068416C41F400414164D7
:101B400019492068884214D0B0F1804F11D017494C
:101B500088420ED0164988420BD01649884208D0D8
:101B60001549884205D01549884202D01449884257
:101B700013D1816801F00701062912D0016841F0F4
:101B8000010101600DE0FFE784F84200CFE784F82F
:101B90004300CCE784F84400C9E7016841F0010143
:101BA0000160002010BD0000000001400004004062
:101BB00000080040000C00400004014000400140CB
:101BC0000018004010B50446002C03D094F83D00E6
:101BD00010B107E0012010BD002084F83C00204631
:101BE00000F016F8022084F83D00211D206800F066
:101BF00037FD01203D3460726070A070E07020718C
:101C00006071A071E07120722070002010BD000092
:101C100008B500680B49884212D10B48016841F0B1
:101C200001010160006800F0010000900022012124
:101C30001920FFF7E9FBBDE808401920FFF7D6BBE4
:101C400008BD0000000001404438024090F83D10FB
:101C5000012901D001207047022180F83D10006861
:101C60001349884214D0B0F1804F11D011498842F5
:101C70000ED0114988420BD01049884208D0104933
:101C8000884205D00F49884202D00F49884209D1C5
:101C9000816801F00701062908D0016841F00101BF
:101CA000016003E0016841F001010160002070471C
:101CB000000001400004004000080040000C00400B
:101CC00000040140004001400018004070B5044687
:101CD000002594F83C00012817D0012684F83C60C8
:101CE000022084F83D002068826822F0770222F406
:101CF0007F4282600868502838D00DDC202853D0FD
:101D000005DC90B3102811D14EE0022070BD3028C0
:101D10004AD040280AD13DE0602831D070280CD04C
:101D2000B0F5805F03D0B0F5005F12D001253C34E0
:101D3000667000202070284670BDCB68D1E9012173
:101D4000206800F00DFD2068816841F07701816016
:101D5000EDE7CB68D1E90121206800F001FD2068A2
:101D6000816841F480418160E1E71DE0CA6849680B
:101D7000206800F0D7FD5021206800F0FBFCD6E77A
:101D8000CA684968206800F0DEFD6021206800F024
:101D9000F1FCCCE7CA684968206800F0C3FD402127
:101DA000206800F0E7FCC2E722680146104600F018
:101DB000E1FCBCE7704770B50446206801694FF04C
:101DC0000005C943890716D4C168C943890712D4DD
:101DD000E91E01610120207720688069800703D017
:101DE0002046FFF7E7FF05E0204600F0F9F820461F
:101DF00000F089F9257720680169C943490718D49B
:101E0000C168C943490714D46FF00401016102207D
:101E100020772068806910F4407F03D02046FFF7C8
:101E2000C9FF05E0204600F0DBF8204600F06BF922
:101E3000257720680169C943090717D4C168C943D8
:101E4000090713D46FF0080101610420207720688E
:101E5000C069800703D02046FFF7ACFF05E02046AD
:101E600000F0BEF8204600F04EF9257720680169A1
:101E7000C943C90618D4C168C943C90614D46FF050
:101E800010010161082020772068C06910F4407FAC
:101E900003D02046FFF78EFF05E0204600F0A0F8B3
:101EA000204600F030F9257720680169C943C90749
:101EB00008D1C168C943C90704D1891E0161204600
:101EC00000F090F920680169C943090609D4C16886
:101ED000C943090605D46FF0800101612046FFF770
:101EE00093FD20680169C943490609D4C168C94303
:101EF000490605D46FF040010161204600F073F9F6
:101F000020680169C94389060BD4C168C9438906A1
:101F100007D46FF0200101612046BDE87040FFF753
:101F200074BD70BDF0B587B00446142102A8FEF759
:101F300098FA26492068884245D10025244801683E
:101F400041F001010160016801F0010101910168A6
:101F500041F002010160016801F002010191016894
:101F600041F010010160006800F010000190802035
:101F7000029002240394049505950126069602A971
:101F80001448FFF7E9F80327029703940494059790
:101F9000069602A91048FFF7DFF82002029003948A
:101FA0000495059506960D4D02A92846FFF7D4F82D
:101FB0004FF420500290039404940597069602A9CA
:101FC0002846FFF7C9F807B0F0BD00000000014047
:101FD000303802400000024000040240001002407D
:101FE000704770B504460D46002694F83C00012861
:101FF0000FD0012084F83C006AB1042A1FD0082ABF
:1020000032D00C2A44D00126002084F83C0030460F
:1020100070BD022070BD2946206800F0B3FB206827
:10202000816941F0080181612068816921F0040122
:102030008161206881692A6911438161E4E7294649
:10204000206800F0D3FB2068816941F40061816160
:102050002068816921F480618161206881692A6931
:1020600041EA02218161CFE72946206800F0F8FBB0
:102070002068C16941F00801C1612068C16921F08F
:102080000401C1612068C1692A691143C161BBE7CC
:102090002946206800F01CFC2068C16941F40061F9
:1020A000C1612068C16921F48061C1612068C16992
:1020B0002A6941EA0221C161A6E710B50446002C55
:1020C00003D094F83D0010B107E0012010BD0020BE
:1020D00084F83C00204600F015F8022084F83D000A
:1020E000211D206800F0BCFA01203D346072607050
:1020F000A070E07020716071A071E071207220709A
:10210000002010BD7047704710B50446002909D063
:1021100004290AD008290BD094F8410001280AD0DC
:10212000012010BD94F83E00F8E794F83F00F5E771
:1021300094F84000F2E70220A9B3042937D0082917
:1021400038D084F841000122206800F0EFFA1E49DF
:1021500020681E4A884201D0904203D1436C43F468
:10216000004343642068884213D0B0F1804F10D000
:10217000174988420DD0174988420AD0164988422B
:1021800007D0904205D01549884202D014498842B0
:1021900013D1816801F00701062912D0016841F0CE
:1021A000010101600DE0FFE784F83E00CBE784F811
:1021B0003F00C8E784F84000C5E7016841F001012D
:1021C0000160002010BD000000000140000401403B
:1021D0000004004000080040000C004000400140A6
:1021E0000018004070477047FEE7D0ED031AD0EDAD
:1021F000060A90ED040A90ED051A21EEA02A00EEE1
:10220000412A80ED002A20EE200A01EE810A80EDAD
:10221000010A70472DE9F0418CB00024089409941C
:102220000A940B9420216846FEF71BF92A48294995
:1022300001604FF4803747608460012505610476B2
:1022400080F82040C46225498162C460C56180F87D
:1022500030404461FEF775FE08B1FEF707FA4FF013
:102260000208CDF8208009950A9408A91A48FEF7BB
:1022700021FD08B1FEF7FAF9CDF80080019503269B
:10228000049602944FF48010079006978DF815403D
:102290008DF81440039469460F48FEF7E9F908B138
:1022A000FEF7E4F90096CDF8048069460A48FEF787
:1022B000DFF908B1FEF7DAF900950196694606489C
:1022C000FEF7D6F9002801D0FEF7D0F90CB0BDE832
:1022D000F081000000200140540100200100000FA7
:1022E0001CB50024009401940F490E48086008466C
:1022F000FEF7ADFE08B1FEF7B9F900940194002293
:1023000069460948FEF780FE08B1FEF7AFF91022D2
:1023100069460548FEF778FE002801D0FEF7A6F9C9
:102320001CBD0000007400409C01002008B511484D
:10233000016841F080010160016801F080010091B5
:10234000016841F001010160016801F001010091A3
:10235000016841F002010160016801F00201009191
:10236000016841F010010160006800F01000009069
:1023700008BD00003038024030B595B000241194FB
:102380001294139414940F9410941C2108A8FEF72F
:1023900068F820216846FEF764F831482F4901604B
:1023A00044602025856042F2CF01C16004610121B3
:1023B00041618461FFF706FC08B1FEF757F94FF45D
:1023C0008050119011A92648FFF780FC08B1FEF754
:1023D0004DF92348FFF771FE08B1FEF747F90F9555
:1023E00010940FA91E48FFF73BFB08B1FEF73EF91A
:1023F0007020089009940A940B940C940D940E94F8
:10240000002208A91648FFF7ECFD08B1FEF72EF9E7
:10241000042208A91248FFF7E4FD08B1FEF726F9E7
:10242000082208A90E48FFF7DCFD08B1FEF71EF9E7
:10243000009401940294A820039004944FF4005057
:102440000590079469460648FFF7E0FA08B1FEF7E1
:102450000DF90348FFF766FD15B030BD00000140DF
:10246000B0010020FEE7FEE7D0ED001AD0ED060A2D
:1024700090ED010A90ED051A21EEA02A00EE012A46
:1024800080ED032A20EE200A01EEC10A80ED040A45
:10249000704700001A48B7EE000A80ED030ADFED2E
:1024A000190AC0ED040A01218185F7EE080AC0ED82
:1024B000050AFFEE080AC0ED060ADFED130A303008
:1024C000C0ED000AF8EE081AC0ED031A9FED0F1ACE
:1024D00080ED041A818580ED050A9FED0D0A80EDDF
:1024E000060A3030C0ED000AC0ED031A80ED041A70
:1024F000818580ED050A9FED070A80ED060A704789
:10250000700000206F12833A000000000AD7A3BBBE
:10251000CDCCCC3ECDCCCCBE818D01290AD09FED57
:10252000210A80ED080A80ED0A0A80ED090A80ED93
:10253000020A704790ED000AD0ED010A70EE600AC1
:10254000C0ED070A90ED0A0A90ED031AF0EE401A6A
:1025500001EE200A80ED080A90ED051AB4EEC10ADA
:10256000F1EE10FA02DD80ED021A0BE090ED061A92
:10257000B4EEC10AF1EE10FA02D280ED021A01E0C7
:1025800080ED020A90ED021A30EE410A80ED090A50
:1025900090ED041A41EE201A31EEC00A80ED0A0ACD
:1025A000704700000000000070477047FEF7C2BE91
:1025B00030B593B0302107A8FDF753FF142102A8CE
:1025C000FDF74FFF00251D48016841F08051016073
:1025D000006800F0805001901948016841F4804182
:1025E0000160006800F48040019001200790000421
:1025F000089002240D9480010E9004200F90A821D1
:1026000010911194129007A8FFF70AF808B1FEF78D
:102610002DF80F200290039404954FF4A0500590DC
:102620004FF480500690052102A8FEF71FFF0028F6
:1026300001D0FEF71BF813B030BD00004038024057
:10264000007000400248016841F470010160704769
:1026500088ED00E00148FFF7AEBB0000B0010020AC
:102660002DE9F0410268264D264E274FDFF89CC029
:10267000274B4FF08048A84209D0404507D0B042D0
:1026800005D0B84203D0604501D0984203D122F072
:1026900070044A682243A8421BD0404519D0B0427A
:1026A00017D0B84215D0604513D0984211D0194CBC
:1026B000A0420ED0184CA0420BD0184CA04208D01B
:1026C000174CA04205D0174CA04202D0164CA04295
:1026D00003D122F44074CA6822434C6922F080027C
:1026E000224302608A68C2620A688262A84201D0FC
:1026F000984201D10969016301214161BDE8F0817E
:10270000000001400004004000080040000C0040B0
:1027100000040140004001400044014000480140E5
:1027200000180040001C00400020004010B501F0DF
:102730001F0101238B40046A9C430462036A8A40A0
:102740001343036210BD10B501F01F0104238B4039
:10275000046A9C430462036A8A401343036210BD07
:1027600010B5846824F47F4442EA03220A432243DA
:10277000826010BD826822F070020A4342F00701B5
:1027800081607047F0B5026A22F001020262026ABB
:102790004368846924F0700424F003050C682C431A
:1027A00022F002058A682A430E4E0F4FB04201D034
:1027B000B84205D122F00805CA682A4322F0040273
:1027C000B04201D0B84207D123F4807323F40073E0
:1027D0004D691D438B692B434360846149684163A4
:1027E0000262F0BD0000014000040140F0B5026A41
:1027F00022F010020262036A4268846924F4E04411
:1028000024F440740D6844EA052423F020038D6805
:1028100043EA0513104D114EA84201D0B04206D133
:1028200023F08003CF6843EA071323F04003A84254
:1028300001D0B04209D122F4806222F400624D69D5
:1028400042EA85028D6942EA8502426084614968F4
:1028500081630362F0BD00000000014000040140FC
:10286000F0B5026A22F480720262026A4368C469A7
:1028700024F0700424F003050C682C4322F4007249
:102880008D6842EA0522104D104EA84201D0B04298
:1028900006D122F40062CF6842EA072222F4806265
:1028A000A84201D0B04209D123F4805323F400534D
:1028B0004D6943EA05138D6943EA05134360C4611A
:1028C0004968C1630262F0BD00000140000401409C
:1028D00030B5026A22F480520262046A4268C36917
:1028E00023F4E04323F440730D6843EA052324F402
:1028F00000548D6844EA0534084DA84202D0084DC2
:10290000A84204D122F480424D6942EA8512426015
:10291000C36149680164046230BD000000000140E9
:102920000004014010B5036A046A24F00104046243
:10293000846924F0F00444EA021423F00A020A43F2
:102940008461026210BD10B5036A23F010030362B4
:102950008469036A24F4704444EA023223F0A00339
:1029600043EA01118261016210BDFEE70907090E09
:10297000002804DB00F1E02080F80014704700F02C
:102980000F0000F1E02080F8141D7047FEF7DAFC1C
:10299000FFF70EFEFFF7CAFCFFF73CFCFFF7ECFC6D
:1029A000FFF79EFCFFF776FD1F48FFF74FF91F4822
:1029B000FEF704F900211E48FEF79EFB10211C487B
:1029C000FEF79AFB00211848FFF79EFB00211648EE
:1029D000FFF78EF804211448FFF796FB04211248F4
:1029E000FFF786F808211048FFF78EFB08210E48F4
:1029F000FFF77EF80F4842F2CF0141638163C16364
:102A0000016A4FF6EF7211400162416C41F40061BE
:102A10004164016A4FF6FF6211400162416C41F46A
:102A200000614164FEE70000B00100205401002075
:102A30009C010020000001404FF00000E1EE100A70
:102A400070470000000000000000010203040607B8
:102A50000809000000000000920E493CB10AC93C80
:102A60002BC3163D2EFB483D752B7B3D04A9963D9F
:102A700080B6AF3D36BDC83D2FBCE13D73B2FA3DD7
:102A800087CF093E8340163EB5AB223EA2102F3EB3
:102A9000CF6E3B3EC2C5473E0115543E135C603EBF
:102AA0007F9A6C3ECCCF783EC07D823E938E883E2E
:102AB000229A8E3E32A0943E86A09A3EE59AA03E8F
:102AC000128FA63ED47CAC3EEF63B23E2A44B83EA1
:102AD000491DBE3E15EFC33E53B9C93ECA7BCF3E2A
:102AE0004136D53E80E8DA3E4F92E03E7533E63E11
:102AF000BBCBEB3EEA5AF13ECBE0F63E275DFC3E17
:102B0000E4E7003F3D9C033F824B063F9BF5083FB7
:102B10006B9A0B3FDA390E3FCDD3103F2A68133F33
:102B2000D9F6153FC07F183FC6021B3FD17F1D3F1E
:102B3000CBF61F3F9967223F25D2243F5636273FC9
:102B40001594293F4AEB2B3FDE3B2E3FBB85303FA0
:102B5000C9C8323FF304353F233A373F4268393F13
:102B60003B8F3B3FF9AE3D3F67C73F3F70D8413F8A
:102B700001E2433F03E4453F65DE473F12D1493F51
:102B8000F8BB4B3F029F4D3F207A4F3F3D4D513F99
:102B90004918533F31DB543FE595563F5348583F62
:102BA0006AF2593F1A945B3F532D5D3F05BE5E3F6D
:102BB0002146603F97C5613F5A3C633F59AA643F35
:102BC000880F663FD86B673F3CBF683FA7096A3FE5
:102BD0000C4B6B3F5E836C3F93B26D3F9ED86E3F54
:102BE00073F56F3F0809713F5213723F4714733FEB
:102BF000DD0B743F0BFA743FC6DE753F07BA763FB4
:102C0000C58B773FF853783F9812793F9DC7793F3E
:102C100002737A3FBE147B3FCDAC7B3F283B7C3FA9
:102C2000C9BF7C3FAC3A7D3FCCAB7D3F23137E3F99
:102C3000B0707E3F6DC47E3F580E7F3F6D4E7F3F2C
:102C4000AB847F3F0FB17F3F97D37F3F43EC7F3F04
:102C500011FB7F3F0000803F11FB7F3F43EC7F3F34
:102C600097D37F3F0FB17F3FAB847F3F6D4E7F3F58
:102C7000580E7F3F6DC47E3FB0707E3F23137E3F72
:102C8000CCAB7D3FAC3A7D3FC9BF7C3F283B7C3F0E
:102C9000CDAC7B3FBE147B3F02737A3F9DC7793F2B
:102CA0009812793FF853783FC58B773F07BA763F44
:102CB000C6DE753F0BFA743FDD0B743F4714733F5C
:102CC0005213723F0809713F73F56F3F9ED86E3FF4
:102CD00093B26D3F5E836C3F0C4B6B3FA7096A3F1D
:102CE0003CBF683FD86B673F880F663F59AA643F77
:102CF0005A3C633F97C5613F2146603F05BE5E3F3A
:102D0000532D5D3F1A945B3F6AF2593F5348583F39
:102D1000E595563F31DB543F4918533F3D4D513FF8
:102D2000207A4F3F029F4D3FF8BB4B3F12D1493FA6
:102D300065DE473F03E4453F01E2433F70D8413F32
:102D400067C73F3FF9AE3D3F3B8F3B3F4268393F4E
:102D5000233A373FF304353FC9C8323FBB85303F84
:102D6000DE3B2E3F4AEB2B3F1594293F5636273F3B
:102D700025D2243F9967223FCBF61F3FD17F1D3FCD
:102D8000C6021B3FC07F183FD9F6153F2A68133F84
:102D9000CDD3103FDA390E3F6B9A0B3F9BF5083FBE
:102DA000824B063F3D9C033FE4E7003F275DFC3E2E
:102DB000CBE0F63EEA5AF13EBBCBEB3E7533E63E46
:102DC0004F92E03E80E8DA3E4136D53ECA7BCF3EA8
:102DD00053B9C93E15EFC33E491DBE3E2A44B83E15
:102DE000EF63B23ED47CAC3E128FA63EE59AA03E85
:102DF00086A09A3E32A0943E229A8E3E938E883EC2
:102E0000C07D823ECCCF783E7F9A6C3E135C603EA4
:102E10000115543EC2C5473ECF6E3B3EA2102F3E29
:102E2000B5AB223E8340163E87CF093E73B2FA3DD2
:102E30002FBCE13D36BDC83D80B6AF3D04A9963DEF
:102E4000752B7B3D2EFB483D2BC3163DB10AC93C7B
:102E5000920E493C00000000920E49BCB10AC9BC68
:102E60002BC316BD2EFB48BD752B7BBD04A996BD9B
:102E700080B6AFBD36BDC8BD2FBCE1BD73B2FABDD3
:102E800087CF09BE834016BEB5AB22BEA2102FBEAF
:102E9000CF6E3BBEC2C547BE011554BE135C60BEBB
:102EA0007F9A6CBECCCF78BEC07D82BE938E88BE2A
:102EB000229A8EBE32A094BE86A09ABEE59AA0BE8B
:102EC000128FA6BED47CACBEEF63B2BE2A44B8BE9D
:102ED000491DBEBE15EFC3BE53B9C9BECA7BCFBE26
:102EE0004136D5BE80E8DABE4F92E0BE7533E6BE0D
:102EF000BBCBEBBEEA5AF1BECBE0F6BE275DFCBE13
:102F0000E4E700BF3D9C03BF824B06BF9BF508BFB3
:102F10006B9A0BBFDA390EBFCDD310BF2A6813BF2F
:102F2000D9F615BFC07F18BFC6021BBFD17F1DBF1A
:102F3000CBF61FBF996722BF25D224BF563627BFC5
:102F4000159429BF4AEB2BBFDE3B2EBFBB8530BF9C
:102F5000C9C832BFF30435BF233A37BF426839BF0F
:102F60003B8F3BBFF9AE3DBF67C73FBF70D841BF86
:102F700001E243BF03E445BF65DE47BF12D149BF4D
:102F8000F8BB4BBF029F4DBF207A4FBF3D4D51BF95
:102F9000491853BF31DB54BFE59556BF534858BF5E
:102FA0006AF259BF1A945BBF532D5DBF05BE5EBF69
:102FB000214660BF97C561BF5A3C63BF59AA64BF31
:102FC000880F66BFD86B67BF3CBF68BFA7096ABFE1
:102FD0000C4B6BBF5E836CBF93B26DBF9ED86EBF50
:102FE00073F56FBF080971BF521372BF471473BFE7
:102FF000DD0B74BF0BFA74BFC6DE75BF07BA76BFB0
:10300000C58B77BFF85378BF981279BF9DC779BF3A
:1030100002737ABFBE147BBFCDAC7BBF283B7CBFA5
:10302000C9BF7CBFAC3A7DBFCCAB7DBF23137EBF95
:10303000B0707EBF6DC47EBF580E7FBF6D4E7FBF28
:10304000AB847FBF0FB17FBF97D37FBF43EC7FBF00
:1030500011FB7FBF000080BF11FB7FBF43EC7FBF30
:1030600097D37FBF0FB17FBFAB847FBF6D4E7FBF54
:10307000580E7FBF6DC47EBFB0707EBF23137EBF6E
:10308000CCAB7DBFAC3A7DBFC9BF7CBF283B7CBF0A
:10309000CDAC7BBFBE147BBF02737ABF9DC779BF27
:1030A000981279BFF85378BFC58B77BF07BA76BF40
:1030B000C6DE75BF0BFA74BFDD0B74BF471473BF58
:1030C000521372BF080971BF73F56FBF9ED86EBFF0
:1030D00093B26DBF5E836CBF0C4B6BBFA7096ABF19
:1030E0003CBF68BFD86B67BF880F66BF59AA64BF73
:1030F0005A3C63BF97C561BF214660BF05BE5EBF36
:10310000532D5DBF1A945BBF6AF259BF534858BF35
:10311000E59556BF31DB54BF491853BF3D4D51BFF4
:10312000207A4FBF029F4DBFF8BB4BBF12D149BFA2
:1031300065DE47BF03E445BF01E243BF70D841BF2E
:1031400067C73FBFF9AE3DBF3B8F3BBF426839BF4A
:10315000233A37BFF30435BFC9C832BFBB8530BF80
:10316000DE3B2EBF4AEB2BBF159429BF563627BF37
:1031700025D224BF996722BFCBF61FBFD17F1DBFC9
:10318000C6021BBFC07F18BFD9F615BF2A6813BF80
:10319000CDD310BFDA390EBF6B9A0BBF9BF508BFBA
:1031A000824B06BF3D9C03BFE4E700BF275DFCBE2A
:1031B000CBE0F6BEEA5AF1BEBBCBEBBE7533E6BE42
:1031C0004F92E0BE80E8DABE4136D5BECA7BCFBEA4
:1031D00053B9C9BE15EFC3BE491DBEBE2A44B8BE11
:1031E000EF63B2BED47CACBE128FA6BEE59AA0BE81
:1031F00086A09ABE32A094BE229A8EBE938E88BEBE
:10320000C07D82BECCCF78BE7F9A6CBE135C60BEA0
:10321000011554BEC2C547BECF6E3BBEA2102FBE25
:10322000B5AB22BE834016BE87CF09BE73B2FABDCE
:103230002FBCE1BD36BDC8BD80B6AFBD04A996BDEB
:10324000752B7BBD2EFB48BD2BC316BDB10AC9BC77
:10325000920E49BC00000080783200080000002077
:1032600070000000C4010008E8320008700000206F
:10327000E8070000E0010008000000000000000076
:103280000000000000000000000000000000003FFF
:103290000000803F0000000000000000CDCC4C3D4D
:1032A000000000000000000000000000000000001E
:1032B000000000000000000000000000000000000E
:1032C00000000000000000000000000000000000FE
:1032D00000000000000000000100000010000000DD
:0832E000000000000024F400CE
:040000050800018965
:00000001FF
